:100000000C9407030C9424030C9424030C942403F1
:100010000C9424030C9424030C9424030C942403C4
:100020000C9424030C9424030C94D1130C940D13FE
:100030000C9437190C9424030C9424030C9424037B
:100040000C9424030C9424030C9424030C94240394
:100050000C9424030C9405190C9424030C9424038D
:100060000C9424030C9424030C9424030C94240374
:100070000C9424030C9424030C9424030C94240364
:100080000C9424030C9424030C9424030C94240354
:100090000C9424030C9424030C9424030C94240344
:1000A0000C9424030C9424030C94240320072007AD
:1000B0005A075A07A207A0094009A009C0079A08D1
:1000C000AB08AB08610A640A670A6A0A6D0A700A1B
:1000D000730A1B114211EF124211EF128E11B1116E
:1000E000EF12B212C112001C051C0F1C031C081CCD
:1000F0000D1C0B1C0A1D0A1D1D1D1D1D131D1D1D84
:100100001D1D1D1D0A1D0A1D181D1D1D1D1D181D4F
:100110004B3A206B633A2025752C20636F6C3A2094
:1001200025752C20726F773A2025752C2070723A35
:100130002025750A0044454255473A206469736199
:10014000626C65642E0A0044454255473A20656E4C
:1001500061626C65642E0A006C6566742073696464
:10016000652061747461636865640A006C65667417
:100170002073696465206E6F7420726573706F6E92
:1001800064696E670A00747279696E6720746F2003
:100190007265736574206D637032333031380A00D4
:1001A000350031682961D75C025400001E0014003C
:1001B00004001D0050004D001F001A0016001B0017
:1001C00051002A00200008000700060052002C0001
:1001D00021001500090019004F004A0022001700F5
:1001E0000A00050000004C0023002F0000002F0231
:1001F0000000B60024003000000030020000E200E1
:1002000025001C000B00110000002B012600180027
:100210000D0010005F004B0027000C000E003600A0
:100220005C0028002D0012000F0037005E002B003C
:100230002E0013003300380061004E0034003402F9
:100240002971D85C01540000010001000100E200A6
:1002500001000000010001005402540001000100EF
:1002600001000100010055000100E0000100010053
:10027000010001000100E100010001000100010096
:100280005800010001000100010001000000010010
:1002900001006300000001000000010001005700A0
:1002A0000000560000000100010001000100620092
:1002B0000000010001005F005C0059000100010026
:1002C000010060005D005A000100010001006100B2
:1002D0005E005B0001002B00010001000100010035
:1002E00001000100010001000100E6000100000022
:1002F000010001002961D75C01000000010001003C
:100300000100010050004D0001000100010001004A
:1003100051002A00010001000100010052002C00E0
:1003200001000100010001004F004A00010001002E
:100330000100010000004C0001000100000001006C
:100340000000010001000100000001000000E200C7
:1003500001003A003F0044000000010001003B00A2
:100360004000450001004B0001003C0041006800D6
:100370000100280001003D004200690001002B003F
:1003800001003E0043006A0001004E000100010030
:100390002971D85C01000000556E69636F646520A7
:1003A000696E707574206D6F646520736574207458
:1003B0006F3A2025750A000631FF0974A1010975FD
:1003C000150026FF00952075088102097615002684
:1003D000FF00952075089102C005010980A10185E3
:1003E0000319012AB700150126B700950175108180
:1003F00000C0050C0901A101850419012AA00215FC
:100400000126A002950175108100C005010906A111
:10041000018505050719E029E715002501950875EF
:100420000181020507190029EF1500250195F075D6
:1004300001810205081901290595057501910295AB
:100440000175039101C005010906A101050719E025
:1004500029E71500250195087501810295017508A8
:1004600081010507190029FF150026FF0095067573
:100470000881000508190129059505750191029566
:100480000175039101C05B435D005B445D005B53FC
:100490005D005B575D005B525D0009025B0003017C
:1004A00000A0FA0904000001030101000921110163
:1004B00000012240000705810308000A0904010029
:1004C0000103000000092111010001226D00070550
:1004D000820320000A09040200020300000009212F
:1004E00011010001222200070583032000010705F6
:1004F00003032000011201100100000008EDFE07B7
:10050000130100010203010403300000001603453B
:1005100000720067006F0044006F00780020004503
:10052000005A00000016034500720067006F004487
:10053000006F007800200045005A00000004030905
:1005400004556E69636F646520696E707574206D03
:100550006F646520696E697420746F3A2025750A8E
:10056000000A002530313662003A2000253032582A
:10057000000A722F63203031323334353637383940
:100580004142434445460A000A0025303258006B78
:100590006579626F6172645F7365745F6C65643AFC
:1005A00020005B735D004B6579626F61726420733C
:1005B000746172742E0A000A002530325820006BD4
:1005C0006579626F6172645F7265706F72743A20F0
:1005D000006164645F6B65795F6269743A2063618E
:1005E0006E2774206164643A20253032580A006412
:1005F000656C5F6B65795F6269743A2063616E2731
:10060000742064656C3A20253032580A00001124A9
:100610001FBECFEFDAE0DEBFCDBF11E0A0E0B1E05A
:10062000E6E7F5E402C005900D92AC3FB107D9F7BB
:1006300023E0ACEFB1E001C01D92AC32B207E1F7AC
:100640000E9453160C94B9220C940000FF93EF9370
:10065000E091FC01F091FD01309709F00995EF91CF
:10066000FF910895FC018591803011F0EFDFFBCF01
:100670000895FF27E0E230E247FF0CC0419597FF65
:1006800009C0EDE26095709580959095611D711D92
:10069000811D911D27FF02C0219530E350E2AA275A
:1006A000660F771F881F991FAA1FA41710F0A41B9D
:1006B00063955A95A9F7AA3008F0A95FA05DAF939A
:1006C000F395611571058105910541F7ED3211F43E
:1006D000EF93F395F21718F43F93F395FBCF8F91B7
:1006E000B5DFFA95E1F70895E991F99185918030A8
:1006F00021F0853219F0AADFF9CF089520E0E894BF
:1007000055915532C1F3503311F4689455915A33D1
:1007100048F4505390F3220F022E220F220F200D87
:10072000250FF4CF0EF4219589919991533619F341
:10073000533729F1533559F1BC0188279927E8949B
:100740005C3621F48991999168945591543639F425
:1007500046EF7EF077FF0DC08FEF9FEF0AC0553751
:100760004AE039F0583540E121F0523642E009F0D4
:100770000895FF93EF937DDFEF91FF91B7CFFF9344
:10078000EF93FC0181918030B9F360DFFBCFFF93E1
:10079000EF9368DFF1CFDF93CF93CDB7DEB7259628
:1007A000A3DFCF91DF9108958F929F92AF92BF9276
:1007B000CF92DF92EF92FF920F931F93CF93DF932D
:1007C000FC018081918123813481232B31F09F3F73
:1007D00031F491E08F3F19F403C091E001C090E043
:1007E00090FDE1C57F0140815181628173818481E7
:1007F0000E947F0DEC01F70182811F928F9381810E
:100800001F928F9380811F928F93DF93CF9380E10C
:1008100091E09F938F930E94CB032DB73EB7265F45
:100820003F4F0FB6F8943EBF0FBE2DBFF701828138
:10083000CA30FDE5DF0769F5882309F4B4C51BC09C
:10084000F7018281882309F43CC21092FF01C23073
:10085000FCE5DF0708F0F6C0C631FCE5DF0709F468
:100860001EC2C1301CE5D10709F488C2CE3D2CE57B
:10087000D20709F042C2DF91CF911F910F91FF90F3
:10088000EF90DF90CF90BF90AF909F908F900C949F
:10089000F019882301F1C33E0CE5D007B9F050F4FC
:1008A000C13E2CE5D20781F0C23E3CE5D30799F466
:1008B00081E00FC0C43E8CE5D80751F0C53E9CE5F1
:1008C000D90749F484E005C080E003C082E001C09C
:1008D00083E00E94C10BD7FF70C0F701828188239B
:1008E00009F46BC080911C038093FE0110921C03DD
:1008F00080914D02813071F048F08230C1F0843037
:10090000E1F486EE0E94A61F88E115C082EE0E94E7
:10091000B91F13C083E00E942B1F88E10E94B91FFA
:1009200088E10E944A1F83E00E94201F06C082EED9
:100930000E94B91F87E50E94A61F8FE39CE90197DB
:10094000F1F700C000008E011F779CE0C92ED12C6A
:10095000C8010C2C02C0969587950A94E2F7282FBF
:100960002F7041F0822F90E02A3010F44D9604C091
:10097000069702C087E290E00E94A61F94E0C91A81
:10098000D108ECEFCE16EFEFDE0611F780914D02A5
:10099000813039F040F0823031F0843051F488E217
:1009A00006C08CE204C082EE0E944A1F02C00E9470
:1009B000A61F8091FE0180931C03C33FFCE5DF0767
:1009C00091F188F4C83D1CE5D107D9F0C93D2CE56B
:1009D000D207A9F1C73D3CE5D30709F031CF26E2A4
:1009E00041EE61EE11C0C53F8CE5D80721F1F8F06A
:1009F000C63FECE5DE0709F023CF27E245EE66EEC1
:100A000003C027E245EE65EEC701DF91CF911F914C
:100A10000F91FF90EF90DF90CF90BF90AF909F909D
:100A20008F900C949A0E26E241EE60EEEDCF27E215
:100A300045EE64EEE9CF26E241EE62EEE5CF28E234
:100A400041E0E1CFC6310CE5D00738F09E012A5FC6
:100A50003C452930310508F0FFCE0E94DF19909304
:100A6000640280936302C0311CE5D10709F4C3C05E
:100A700008F041C0C8303CE5D30709F49AC0F0F44F
:100A8000C4309CE5D90709F487C068F4C230FCE59E
:100A9000DF0709F477C0C330DC4509F0E5C0809179
:100AA0006302826076C0C6301CE5D10709F46EC0CF
:100AB00008F07BC08091630288606BC0CC303CE55D
:100AC000D30709F485C068F4CA309CE5D90709F456
:100AD00074C008F079C00E940B1F80916302806887
:100AE00058C0CE30FCE5DF0709F476C008F07FC0BF
:100AF000809163028BC0CB3F1CE5D10709F44FC046
:100B000018F5C3313CE5D30709F47DC078F4C13151
:100B10009CE5D90709F473C0C231DC4509F0A4C0D3
:100B20000E940B1F809163028F7733C0C531FCE5B3
:100B3000DF0709F472C008F486C0CA3FDC4509F03B
:100B400093C0809164023EC0CF3F2CE5D20709F4E8
:100B50005FC058F4CD3F8CE5D80709F444C008F4D1
:100B60003FC08091640282602DC0C130EDE5DE0798
:100B700009F475C008F45DC0C230DD4509F074C0E9
:100B800060E06EC080916302816003C08091630267
:100B900080618093630268C08091630211C080917C
:100BA00064028260809364025FC08091630280620D
:100BB000F0CF809163028064ECCF80916302886003
:100BC0008460E7CF8160EECF809163028E7FE1CFBA
:100BD000809163028D7FDDCF80916302877FD9CFC3
:100BE0008091640218C0809164028D7FDBCF809178
:100BF00063028F7ECECF809163028F7DCACF8091BA
:100C000063028F7BC6CF80916302877F8B7FC1CFCA
:100C1000809164028D7F8E7FC5CF8091630282FBBD
:100C2000222720F991E0922790FB82F990FB83F92B
:100C3000B0CF80916402982F909591708E7F892B10
:100C400090FB81F9AFCF0E940B1F8091630287FB5D
:100C5000222720F991E0922790FB87F99ACF61E053
:100C60008EE090E00E943E2160916302C091640298
:100C700084E090E00E943E216C2F81E290E00E948F
:100C80003E21DF91CF911F910F91FF90EF90DF9068
:100C9000CF90BF90AF909F908F900C940B1F80913E
:100CA0001C038A7A91E009F490E090930002882373
:100CB00011F065E301C069E286E892E00E949919AB
:100CC0000EC0C631DC4509F077C080910002882350
:100CD00009F467C365E386E892E00E946019DF913A
:100CE000CF911F910F91FF90EF90DF90CF90BF9029
:100CF000AF909F908F900C947C1AC115DC4509F041
:100D00005BC00E940B1F8FEF94E3ECE0815090409A
:100D1000E040E1F700C00000F89481E08093E0003B
:100D200080E28093D8001092C9008FE19EE4019781
:100D3000F1F700C000001DBA109268001CBC10BE84
:100D40001FBA10927A0010926E0010926F001092EB
:100D50007100109272001092C9001092BC0014B879
:100D600017B81AB81DB810BA1092BC0015B818B848
:100D70001BB81EB811BA0C94003F15C380917702BE
:100D8000982F9095917090FB80F98093770299232A
:100D900019F087E491E002C085E391E0DF91CF9103
:100DA0001F910F91FF90EF90DF90CF90BF90AF9089
:100DB0009F908F900C943203F701C081D1818823DA
:100DC00049F0CE010E94001B182F682FCE010E940F
:100DD0007A1B04C0CE010E944D1B182FBE01812F2B
:100DE0000E94DB0BD82FC92FD82EF7010581029561
:100DF0000F701281111110921B03809119038770DB
:100E000079F0112369F080E28D0F883048F082E09C
:100E10000E94421C809119038770CC24C3948111D5
:100E2000C12CBC2EB2948FE0B8228B2D90E08C3078
:100E3000910508F085C2FC01EA5AFF4F0C949221FB
:100E40008C2F807FCF70882311F0C295C07F112333
:100E5000B9F0CC2309F4FEC180E28D0F883010F088
:100E6000D11006C080911C03C82BC0931C0305C081
:100E700080911B03C82BC0931B030E947C1AEAC1FC
:100E80008D2F0E944A1FCC2309F45AC2D05EC09510
:100E9000D83010F0D11006C080911C03C823C09335
:100EA0001C0305C080911B03C823C0931B030E9431
:100EB0007C1A46C28C2F807FCF70803211F0C29591
:100EC000C07FDD2021F0F1E0DF16D1F025C0112335
:100ED00079F080911D03002349F0013039F4C82BCB
:100EE000C81709F42DC2C0931D032AC28C2B0EC053
:100EF000002319F0013009F423C20E94761A1EC0A3
:100F0000112339F0023008F01BC28C2F0E94401FC1
:100F100017C2011115C212C0112319F00023A9F341
:100F200099C1002359F0D93309F0A6C10FEF17EE8C
:100F300023E0015010402040E1F79CC18C2F0E941B
:100F4000351FFEC18C2F86958695837019F08130F0
:100F500061F0F6C1112321F08D2F9C2F937002C0F8
:100F600080E090E00E949F0BF1C1112321F08D2FB2
:100F70009C2F937002C080E090E00E94890BE6C134
:100F80008C2F837009F067C01111DEC19D2F9295DF
:100F900096959770990F990F0D2F0F7010E020E024
:100FA00030E0092E04C0000F111F221F331F0A94C6
:100FB000D2F7D4FF12C04FE050E060E070E004C010
:100FC000440F551F661F771F9A95D2F7DB01CA01A0
:100FD00080959095A095B09503C080E090E0DC01ED
:100FE000C695C695C370C23019F1C8F480901E032F
:100FF00090901F03A0902003B0902103C13059F0BE
:10100000802B912BA22BB32BBC01CD016821792120
:101010008A219B210AC0082919292A293B29BC01B8
:10102000CD01602B712B822B932B0E947C1C8CC1D9
:10103000802B912BA22BB32B00911E0310911F0329
:101040002091200330912103BC01CD01602771273D
:1010500082279327EACF112319F08C2F817001C0CA
:101060008695882309F470C19D2F92959695977067
:10107000990F990F0D2F0F7010E020E030E0092E2E
:1010800004C0000F111F221F331F0A94D2F7D4FF90
:1010900012C04FE050E060E070E004C0440F551F04
:1010A000661F771F9A95D2F7DB01CA01809590954C
:1010B000A095B09503C080E090E0DC01C695C69590
:1010C000C370C230D9F068F5809015039090160374
:1010D000A0901703B0901803C13059F0802B912BCA
:1010E000A22BB32BBC01CD01682179218A219B2140
:1010F0001EC0082919292A293B2913C0802B912BAE
:10110000A22BB32B00911503109116032091170306
:1011100030911803BC01CD016027712782279327E6
:1011200006C0BC01CD01602B712B822B932B0E943A
:10113000A61B0AC1CF70112339F08C2F0E945B1CB3
:101140008D2F0E94401F00C18D2F0E94351F8C2FB4
:101150000E941D1CF9C08D2F32EFD316E9F13D1509
:1011600038F090EFD91661F0E1EFDE1681F16DC035
:10117000F3EFDF16C1F124EFD21609F44BC065C0BE
:10118000112309F10111DCC0CF7181E090E0A0E0F2
:10119000B0E0AC01BD0104C0440F551F661F771FAE
:1011A000CA95D2F78091150390911603A091170369
:1011B000B09118038A019B01082719272A273B278A
:1011C000C901B80124C0023008F0BAC0DDCF112334
:1011D00029F08C2F8F712CC01123D9F38C2F8F7194
:1011E0000E941D1CADC0112379F0CF7181E090E009
:1011F000A0E0B0E0BC01CD0104C0660F771F881FDE
:10120000991FCA95D2F703C060E070E0CB010E943D
:10121000A61B96C0112379F0CF718C2F0E945B1C06
:1012200018E0C19FC00111248360809319038C2FA3
:101230000E945B1C85C081E00E94421C023008F4C1
:101240007FC082E00E94421C7BC0112339F0002342
:1012500009F4BFCF8D2F0E94B91F72C0002309F47B
:10126000BDCF893349F42FEF37EE83E02150304072
:101270008040E1F700C000008D2F0E944A1F60C02F
:1012800092EFD916E1F09D1538F0E0EFDE1669F027
:10129000F1EFDF1611F12BC024EFD216C9F0D216F0
:1012A00060F035EFD31671F022C0112309F44EC05F
:1012B0009091270381E0892708C081E018271093C7
:1012C000270344C0111142C081E0809327033EC030
:1012D00011113CC01092270339C0112329F08091CD
:1012E0002603882329F329C0002311F32FC08091FE
:1012F00026030023C1F0882341F09091270381E069
:10130000892780932703109226038D2F112319F02C
:101310000E94B91F1BC00E944A1F86E0F70111926C
:101320008A95E9F713C0882389F011110FC09091B5
:10133000270381E08927809327031092260306C0A4
:1013400088EF8B0D843010F40E94B50BCC20A9F0EF
:101350008091190380FD11C0F70112828595859552
:1013600085950E945B1CC7010E94D40380911903DC
:101370008595859585950E941D1CF70140815181B9
:10138000628173818481DF91CF911F910F91FF90D2
:10139000EF90DF90CF90BF90AF909F908F900C9484
:1013A0007F0D69E298CCDF91CF911F910F91FF9053
:1013B000EF90DF90CF90BF90AF909F908F90089567
:1013C0009091630292FF0DC0282F2871283019F4E4
:1013D000877F846006C0282F2471243011F48B7F0E
:1013E000886093FF0DC0282F2871283119F4877E5B
:1013F000846106C0282F2471243111F48B7E88610A
:101400002091640220FF0DC0382F3871383019F454
:10141000877F816006C0382F3171313011F48E7FA3
:10142000886021FF0DC0282F2871283119F4877E8C
:10143000816106C0282F2171213111F48E7E8861CF
:1014400094FD877E0895CF93E82F873080F58091B3
:10145000070190910801892B09F047C0CE2F64E65F
:1014600070E080E40E947A20909308018093070145
:10147000892BD1F464E670E082E10E94D120909340
:10148000080180930701892B79F481E090E001C085
:10149000880FCA95EAF764E670E080950E94D12033
:1014A0009093080180930701CF910C94262190E03E
:1014B000FC013797E730F105C0F4EE59FF4F0C946B
:1014C0009221209A289811C0219A29980EC0229A18
:1014D0002A980BC0239A2B9808C0529A5A9805C094
:1014E000539A5B9802C03E9A4698CF910895CF9345
:1014F000873040F58091070190910801892B59F5BB
:1015000064E670E081E40E947A2090930801809361
:101510000701892B11F0C0E011C084E690E00E9421
:10152000012197FF05C09093080180930701F3CF35
:10153000C82FC09510920801109207010E94262121
:101540008C2F0AC09FB18FB1807F8695869593704E
:10155000892B809501C080E0CF9108950F931F9350
:10156000CF93DF93CDB7DEB767970FB6F894DEBFA2
:101570000FBECDBF4B8B5C8B6D8B7E8B8F8B0E89A3
:101580001F890115110531F05F3F31F481E04F3FB4
:1015900019F403C081E001C080E080FD32C0242F37
:1015A00030E0A1E0B0E0042E01C0AA0F0A94EAF7EF
:1015B000852F90E0662319F07091270305C0FC0188
:1015C000E55FFD4F70817A237723A1F046E0489FC5
:1015D000F001499FF00D1124E20FF31FEE0FFF1FE2
:1015E000ED5EFE4F40815181FC01E55FFD4F908132
:1015F000A92B06C0FC01E55FFD4FA0958081A823C3
:10160000A08386E0FE013D96DF01982F1D929A95FA
:10161000E9F74D875E876F87198B088BDE01179678
:1016200001900D928A95E1F7CE0107960E94211D47
:1016300081113EC086E0FE013796DE0111960190D1
:101640000D928A95E1F7FF81E8856A857B856115B2
:10165000710531F0EF3F31F481E0FF3F19F403C031
:1016600081E001C080E080FD23C02091AC0230E029
:10167000C9010196877099274091DD0250E08417D7
:10168000950779F1F983EA837D836C8396E0929FD5
:10169000D001939FB00D1124A355BD4FFE0131968B
:1016A00001900D929A95E1F78093AC020E94861CFE
:1016B00016E08091DD029091AC028917F9F0189F35
:1016C000C001112483559D4F0E94211D8823B1F034
:1016D0008091DD0290E00196877099278093DD026A
:1016E000E8CF0E940B1F1092AC021092DD02E6EAD6
:1016F000F2E086E0DF011D928A95E9F767960FB662
:10170000F894DEBF0FBECDBFDF91CF911F910F9137
:1017100008952091090230910A022817390771F0C3
:1017200090930A0280930902E0916502F0916602AB
:10173000309721F00084F185E02D099408952091DF
:101740000702309108022817390771F090930802B8
:1017500080930702E0916502F0916602309721F0D4
:101760000680F781E02D09940895E0916502F091DB
:101770006602309721F00190F081E02D099480E01D
:10178000089580934D02682F8CE090E00E943E21E6
:101790008091770280FF0EC080914D021F928F933F
:1017A00088E993E09F938F930E94CB030F900F9053
:1017B0000F900F900895CF93DF9324E5829FC0018F
:1017C0001124FC0146E0749FE00DF11D1124E60F89
:1017D000F11DEE0FFF1FE056FE4FC591D491CE01D3
:1017E000C238D10569F1B0F4C133D10509F475C02F
:1017F00048F4C932D10509F469C0CA32D10509F4E7
:1018000073C085C0C533D10509F459C0C933D105AA
:10181000B9F07DC0C33ED10571F138F4C03ED105A9
:10182000B1F0C23ED10511F172C0C63ED105B9F189
:10183000C73ED105C9F1C43ED10509F068C024C036
:101840002091630220FD5DC021FD5BC060C020913E
:10185000630220FD50C02091640220FF4DC18091A1
:10186000630284FD47C183EE90E046C1209163028C
:1018700022FF42C1F4CF8091630282FD3FC080917C
:10188000640280FD3EC0EBCF2091640221FF34C191
:101890008091630284FD2EC187EE90E02DC12091DE
:1018A000630223FF29C1F4CF8091630283FD2CC022
:1018B0008091640281FFECCF84EE90E01DC1209105
:1018C000630225FF19C189E290E016C120916302ED
:1018D00025FF12C185E390E00FC12091630226FF2E
:1018E0000BC18AE290E008C12091630226FF04C187
:1018F00081E390E001C189E390E0FEC082EE90E0D8
:10190000FBC080EE90E0F8C086EE90E0F5C0C11517
:1019100052E5D50708F06BC0C11521E5D20728F0C4
:101920009C2F8827816F906AE7C0C83ED10570F56B
:10193000C03ED10508F0E0C0C83AD105B8F4C53AB8
:10194000D10550F08C2F855AC82FD0E0C653DE4FFA
:10195000888190E09064D0C0C130D10509F4CCC03A
:1019600008F4C8C0249708F4C5C0C6C0CF3BD10551
:1019700008F0C0C08C2F885AC82FD0E0CC0FDD1FD4
:10198000C353DE4F888199819464B6C0C11540E588
:10199000D407F0F0CE01F4E096958795FA95E1F73B
:1019A000282F23703C2F337081E090E002C0880F15
:1019B000991F3A95E2F79C68922B2C2F2F70269551
:1019C000269550E2259F90011124822B932B94C0E1
:1019D000C11550E4D50720F0CE019F70906A8CC0ED
:1019E0009E013A9521153F4108F486C083C0C11578
:1019F00056E5D50708F03FC0C11585E5D80748F082
:101A00008C2F0E94E0098F7190E0982F88279062B8
:101A100073C0C11524E5D20728F09C2F8827846F56
:101A2000906A6AC09E01237033279C2F96959695E5
:101A3000C115D34580F441E050E002C0440F551F6A
:101A40002A95E2F780E2989F90011124CA01822B27
:101A5000932B9C6851C041E050E002C0440F551FD9
:101A60002A95E2F780E2989F90011124CA01822B07
:101A7000932B9A6841C0C1155AE5D50778F5C11571
:101A800089E5D80710F18C2F8F700E94E0099E0124
:101A900094E0369527959A95E1F72F7030E0322F34
:101AA00022273069A901482B0EC09056811590421B
:101AB00008F58D2F8F710E94E0099E013327306257
:101AC0008F71A901582BCA0117C0C11528E5D2078B
:101AD00088F09C2F8827806F906A0EC0C1154BE557
:101AE000D40740F0CE01C1155CE5D507F0F6992783
:101AF000906602C080E090E0DF91CF9108951F933F
:101B0000CF93DF9300D000D01F92CDB7DEB74983CB
:101B10005A8389819A81662349F00E94001B182FFD
:101B2000682F89819A810E947A1B03C00E944D1BF5
:101B3000182F8A8194E5199FF001112496E0899F5E
:101B4000E00DF11D11248981E80FF11DEE0FFF1F3B
:101B5000E056FE4F859194910F900F900F900F904B
:101B60000F90DF91CF911F91089580E290E09093C4
:101B70000801809307018091040281110EC00E9428
:101B8000742081E0809304022FEF83ED90E32150D5
:101B900080409040E1F700C0000064E670E080E41F
:101BA0000E947A209093080180930701892B09F005
:101BB0004EC064E670E080E00E94D120909308015E
:101BC00080930701892B09F042C064E670E080E051
:101BD0000E94D1209093080180930701892BB9F5C9
:101BE00064E670E08FE30E94D12090930801809317
:101BF0000701892B61F50E94262164E670E080E4EC
:101C00000E947A209093080180930701892BF9F4B0
:101C100064E670E08CE00E94D120909308018093EC
:101C20000701892BA1F464E670E080E00E94D120D6
:101C30009093080180930701892B49F464E670E0D2
:101C40008FE30E94D12090930801809307010E94A6
:101C5000262180910701089556985E9825982D9821
:101C600026982E9827982F988FEF90E090938900D0
:101C70008093880090938B0080938A0090938D00CE
:101C800080938C00259A2D9A2FEF80E792E02150C7
:101C900080409040E1F700C00000269A2E9A2FEF76
:101CA00080E792E0215080409040E1F700C00000C2
:101CB000279A2F9A2FEF80E792E0215080409040A2
:101CC000E1F700C0000025982D982FEF80E792E003
:101CD000215080409040E1F700C0000026982E98E7
:101CE0002FEF80E792E0215080409040E1F700C064
:101CF000000027982F9856985E9825982D9826983A
:101D00002E9827982F98089584B1807F84B985B143
:101D1000807F85B98AB1837F8AB98BB1837F8BB984
:101D20003E984698089580B38C7080BB81B3836FD2
:101D300081BB0895CF92DF92EF92FF920F931F9392
:101D4000CF93DF93C62F142F022FFC0182818823AB
:101D5000E9F06093FF010E942B1990930602809393
:101D6000050280E28C0F883008F07CC0C77081E0EB
:101D700001C0880FCA95EAF7DF91CF911F910F91AB
:101D8000FF90EF90DF90CF900C94401F8091FF0167
:101D9000681349C020910502309106024FB7F894AC
:101DA0008091220390912303A0912403B0912503F5
:101DB0004FBF6C017D01EE24FF24A90160E070E0BB
:101DC000821B930BC416D506E606F70608F40197A6
:101DD000883C910540F5D0E2D10FC117B9F080E2FF
:101DE0008C0F883040F4C77081E001C0880FCA951D
:101DF000EAF70E94351FD83050F581E0912F977097
:101E000001C0880F9A95EAF70E94401F802F0E9418
:101E1000A61FD83038F5412F477081E001C0880FE8
:101E20004A95EAF70AC080E28C0F8830D8F4C77070
:101E300081E001C0880FCA95EAF7DF91CF911F9129
:101E40000F91FF90EF90DF90CF900C94351F802F73
:101E5000DF91CF911F910F91FF90EF90DF90CF9086
:101E60000C94A61FDF91CF911F910F91FF90EF90DF
:101E7000DF90CF900895CF92DF92EF92FF920F9371
:101E80001F93CF93DF938091070190910801892BD5
:101E9000C1F0809103028F5F80930302811111C012
:101EA00086E891E00E9432030E94B50D90E0909385
:101EB000080180930701892B61F08CE691E00E9474
:101EC000320395E5E92E92E0F92E8701C0E0D0E0DB
:101ED0001AC088E591E00E9432030E942C0EF1CFD7
:101EE000D12C8C2D0E94770AF80197818917F9F07F
:101EF000878381E0D82ADD290E94840ECF5F0F5F9F
:101F00001F4FC730B1F087E0C82ECC0E8C2F0E9437
:101F1000230A8C2D0E94230A8C2F0E94770AF80135
:101F200090818917E9F28083DD24D394DACF80E0B1
:101F3000E1CF0E942B196AEF70E00E947E219C0184
:101F4000682F809102028823E9F110920202E09149
:101F50004B02F0914C02DF011E9690E07BEF0AEFFE
:101F600010E080818B3FA9F0482F50E0681728F0DF
:101F70006901C41AD50AA60106C06801C41AD50AA7
:101F8000A601420F531F4E31510514F0708301C05A
:101F900091E03196EA17FB0721F790930202D111E5
:101FA00002C0911111C010920102E0914B02F09118
:101FB0004C0290910202A8E6B2E0AF01425F5F4F8F
:101FC00080E007C0D111EFCF809101028111EBCFEA
:101FD00017C0E70129917E013C91321741F0308111
:101FE0003B3F21F460832C9391E001C081E0319666
:101FF0001196E417F50769F79093020280930102A6
:1020000081E0DF91CF911F910F91FF90EF90DF90D2
:10201000CF900895EF92FF920F931F93CF93DF938A
:102020007C018B010E946E15811119C0E701011519
:102030001105A1F08091E80085FD0AC08091E800BB
:102040008E778093E8000E946E15882381F307C085
:1020500089918093F10001501109E9CF80E0DF916F
:10206000CF911F910F91FF90EF9008951F93CF9301
:10207000DF93CDB7DEB7AA970FB6F894DEBF0FBED9
:10208000CDBFE2E4F2E08AE492E02091F1002193F6
:102090008E179F07D1F780914302833009F460C007
:1020A00030F4813071F0823009F49AC0B1C08A30C6
:1020B00009F486C08B3009F46BC0893009F0A8C0E0
:1020C00020C080914202813A09F0A2C08091E800CC
:1020D000877F8093E8008091460290914702892B88
:1020E00021F460E28EE192E003C060E080E090E0E5
:1020F00070E00E94F5158091E8008B778093E800EE
:1021000087C080914202813209F082C080914602EC
:1021100090914702029708F07BC08091E800877F8A
:102120008093E8008091E80082FD05C08091400224
:102130008111F8CF6DC02091F3008091F20090E002
:10214000922B029729F48091F1008B7F813021F44A
:102150008091F10080931D028091E8008B7754C03C
:1021600080914202813A09F053C0809146029091D9
:102170004702892B09F04CC08091E800877F80934B
:10218000E8008091E80080FFFCCF8091060137C015
:10219000809142028132E1F580914602909147029E
:1021A000892BB1F58091E800877F8093E8000E9439
:1021B000A11580914402809306010E940B1F28C044
:1021C00080914202813221F58091E800877F8093DF
:1021D000E8000E94A1158091450280931C0218C05E
:1021E00080914202813AA1F48091E800877F809338
:1021F000E8008091E80080FFFCCF80911C02809372
:10220000F1008091E8008E778093E8000E94A1158C
:102210008091E80083FFE3C18091420290914302E4
:10222000492F50E04A30510508F0D9C1FA01E75969
:10223000FF4F0C949221803821F0823809F0CFC1F1
:1022400008C080913E0290913F02992389F08260FC
:102250000FC0809146028F70873008F0C0C1809314
:10226000E9008091EB0085FB882780F91092E90056
:102270009091E800977F9093E8008093F10010928E
:10228000F1007BC1282F2D7F09F0A9C1882319F007
:10229000823061F0A4C180914402813009F09FC175
:1022A000933009F080E080933F022EC08091440279
:1022B00081112AC0809146028F702FEF280F26309F
:1022C00008F08DC18093E9002091EB0020FF1CC035
:1022D000933021F48091EB00806214C09091EB0068
:1022E00090619093EB0021E030E0A90102C0440F1F
:1022F000551F8A95E2F74093EA001092EA00809118
:10230000EB0088608093EB001092E9008091E80078
:10231000877F8093E8000E94A11561C181115FC190
:10232000109144021F778091E3008078812B809385
:10233000E3008091E800877F8093E8000E94A11568
:102340008091E80080FFFCCF8091E300806880935B
:10235000E300111102C082E001C083E080934002DB
:102360003EC18058823008F03AC120914402309139
:1023700045022C3D53E0350779F583E08A838AE2F4
:1023800089834FB7F894DE01139620E03EE051E2D6
:10239000E32FF0E050935700E49120FF03C0E29553
:1023A000EF703F5FEF708E2F90E0EA3010F0C7962D
:1023B00001C0C0968D939D932F5F243149F74FBF85
:1023C0008091E800877F8093E8006AE270E0CE01A8
:1023D00001960E94F515C0C0809146029091470277
:1023E000432F552743305105B1F068F44130510572
:1023F00009F404C14230510509F0F1C08BE590E0C9
:10240000EAE9F4E057C04132510589F14232510501
:1024100009F43CC0E4C0C901992781309105B9F0A5
:1024200070F082309105D9F0039709F0D8C0E7E049
:10243000F5E0E4918E2F90E0E7E0F5E038C0EDE3C1
:10244000F5E0E4918E2F90E0EDE3F5E030C0E5E2B9
:10245000F5E0E4918E2F90E0E5E2F5E028C0EDE0B4
:10246000F5E0E4918E2F90E0EDE0F5E020C08330C0
:10247000910508F0B4C0880F991FFC01EC53FE4F82
:102480000190F081E02D89E090E014C08330910547
:1024900008F0A5C0FC01EE0FFF1FE254FE4F0190B3
:1024A000F081E02DDC01A554BE4F8C9190E00097A7
:1024B00009F495C02091E800277F2093E80020913F
:1024C0004802309149022817390708F4C90140E051
:1024D000009789F120914002222309F43DC0253064
:1024E000D9F12091E80023FD37C02091E80022FDBA
:1024F0002FC02091E80020FFEBCF4091F300209106
:10250000F20030E0342B009759F02830310540F4C8
:1025100044914093F100319601972F5F3F4FF3CFE5
:1025200041E02830310509F040E02091E8002E77A5
:102530002093E800CDCF4111CDCF0AC08091400259
:10254000882351F0853041F08091E80083FD04C07C
:102550008091E80082FFF2CF8091E8008B77809332
:10256000E8003DC08038D9F58091E800877F8093EE
:10257000E800809141028093F1008091E8008E771D
:10258000C8CE81112CC080914402909145029927B8
:1025900002972CF58091E800877F8093E8001091E6
:1025A0004402109341020E94A115111106C08091AE
:1025B000E30087FD02C081E001C084E08093400217
:1025C00042E061EC81E00E94C01542E261EC82E0F1
:1025D0000E94C01542E261EC83E00E94C015809128
:1025E000E80083FF10C08091E800877F8093E800B7
:1025F0008091EB0080628093EB0005C082E190E067
:10260000E5EFF4E057CFAA960FB6F894DEBF0FBE01
:10261000CDBFDF91CF911F9108951F920F920FB6FA
:102620000F9211242F933F934F935F936F937F9358
:102630008F939F93AF93BF93CF93DF93EF93FF93CA
:10264000C091E900CF708091EC00D82FD17080FD4F
:10265000D0E81092E9008091F000877F8093F0002D
:1026600078940E9436101092E9008091F000886002
:102670008093F000CD2BCF70C093E900FF91EF91D4
:10268000DF91CF91BF91AF919F918F917F916F918A
:102690005F914F913F912F910F900FBE0F901F9020
:1026A0001895E8EDF0E080818E7F80831092E20043
:1026B0001092DA001092E100A0EEB0E08C918160FF
:1026C0008C9380818F77808319BCA7EDB0E08C91CB
:1026D0008E7F8C9380818F7E808310921B02089561
:1026E000CF92DF92EF92FF920F931F93CF93DF93DE
:1026F000C8EDD0E088818F7E8883E7EDF0E08081AF
:102700008160808384E082BF81E080931B028881A6
:102710008E7F888302EE10E0F80110821092DA00BA
:1027200081EEC82ED12CF601108288818F778883A4
:1027300088818068888388818F7D888319BC109206
:1027400040021092410210923F0210923E0290EE1F
:10275000E92EF12CF70180818B7F80838881816055
:10276000888342E060E080E00E94C015F60180812D
:102770008E7F8083F8018081816080838081886082
:102780008083F70180818E7F808388818061888348
:10279000DF91CF911F910F91FF90EF90DF90CF903D
:1027A00008951F920F920FB60F9211242F933F930B
:1027B0004F935F936F937F938F939F93AF93BF9349
:1027C000EF93FF938091E10082FF49C08091E20086
:1027D00082FF45C08091E1008B7F8093E1002091D2
:1027E0001A022F5F822F62E30E947221992319F04F
:1027F00020931A0234C010921A0280911902882381
:1028000071F180914002843041F58091E9008F7030
:102810002091EC00922F917020FD90E8892B93E09D
:102820009093E9009091EB0090FF14C09091EE001E
:1028300097FF10C09091E80095FF03C01092F1003F
:10284000F9CF9091E80090FF05C09091E8009E7745
:102850009093E8008F708093E900109219028091A4
:10286000DA0080FF32C08091D80080FF2EC08091B6
:10287000DA008E7F8093DA008091D90080FF1CC03F
:1028800080E189BD82E189BD09B400FEFDCF81E010
:102890008093400286E894E00E94320380911B02FC
:1028A000811113C00E9451130E9470138091E200A5
:1028B00084608093E20009C019BC109240028AE84B
:1028C00094E00E94320310921B028091E10080FF8D
:1028D0001BC08091E20080FF17C08091E2008E7FD4
:1028E0008093E2008091E20080618093E200809119
:1028F000D80080628093D80019BC85E080934002A4
:102900008EE894E00E9432038091E10084FF36C09B
:102910008091E20084FF32C080E189BD82E189BDFF
:1029200009B400FEFDCF8091D8008F7D8093D80040
:102930008091E1008F7E8093E1008091E2008F7EA4
:102940008093E2008091E20081608093E2008091B8
:102950004102882311F084E007C08091E30087FDE5
:1029600002C081E001C083E08093400282E994E0EC
:102970000E9432030E940B1F0E94B50B8091E10060
:1029800083FF2BC08091E20083FF27C08091E1008C
:10299000877F8093E10082E08093400210924102A1
:1029A0008091E1008E7F8093E1008091E2008E7F34
:1029B0008093E2008091E20080618093E20042E037
:1029C00060E080E00E94C0158091F00088608093F4
:1029D000F00086E994E00E943203FF91EF91BF91ED
:1029E000AF919F918F917F916F915F914F913F91A7
:1029F0002F910F900FBE0F901F9018959FB7F894CE
:102A0000109219029FBF90914002943009F057C074
:102A10009091E9009F703091EC00232F217030FDE0
:102A200020E8922B23E02093E9002091EB0020FF87
:102A300043C02091EE0027FF3FC020914A0222238D
:102A400021F02091E80025FF37C010924A0226E0CD
:102A50003091E80035FD15C030914002343061F509
:102A60003091EB0035FD28C0215021F481E08093A6
:102A70004A0222C0EFE9FFE03197F1F700C0000001
:102A8000E7CF8093F1008091E80085FD0AC0809136
:102A9000E80080FFFCCF8091E8008E778093E8000B
:102AA00006C08FB7F89421E0209319028FBF9F7062
:102AB0009093E90080E008959F709093E9008FEF74
:102AC000089520914002243021F4BC0184E00C944C
:102AD000D2180895BC0183E00C94D2182091E40030
:102AE0003091E50095E64091EC00842F817040FF25
:102AF00023C08091E80080FD1DC0809140028823A2
:102B000099F0853099F08091EB0085FD11C04091DE
:102B1000E4005091E5002417350729F3915011F096
:102B20009A01E1CF84E0089582E0089583E008955A
:102B300081E0089580E008954091E80042FFDDCFF4
:102B400008958091420287FF11C08091E80082FDC4
:102B500005C0809140028111F8CF11C08091E8003A
:102B60008B770BC080914002882349F08091E80068
:102B700080FFF8CF8091E8008E778093E800089579
:102B8000982F973068F59093E900981739F0709175
:102B9000EC002091ED005091F00003C0242F762F1F
:102BA00050E021FD02C09F5FECCF3091EB003E7FF3
:102BB0003093EB003091ED003D7F3093ED0030918C
:102BC000EB0031603093EB007093EC002093ED004C
:102BD0005093F0002091EE0027FDE5CF80E00895AE
:102BE0008F708093E90081E0089520914802309130
:102BF00049022617370748F06115710539F420910D
:102C0000E8002E772093E80001C0B901FC0120E024
:102C10006115710579F1809140028823F1F18530C9
:102C2000F1F18091E80083FD3CC08091E80082FDD5
:102C30002EC08091E80080FFEBCF2091F3008091BF
:102C4000F20090E0922B6115710551F088309105EA
:102C500038F421912093F100615071090196F3CF6E
:102C600021E0089709F020E08091E8008E778093BA
:102C7000E800CECF2111CFCF0AC080914002882337
:102C800061F0853061F08091E80083FD0AC0809199
:102C9000E80082FFF2CF80E0089582E0089583E0AB
:102CA000089581E00895CF93DF93CDB7DEB72C97D9
:102CB0000FB6F894DEBF0FBECDBF84B7877F84BF49
:102CC0000FB6F894A89580916000886180936000A9
:102CD000109260000FBE90E080E80FB6F8948093E9
:102CE0006100909361000FBE85B7806885BF85B78E
:102CF000806885BF0E9451130E9470138091E2008A
:102D000084608093E2008EEF94E19093FD018093C4
:102D1000FC017894809140028823A1F01091E90091
:102D20001F709091EC00892F817090FD80E8182B26
:102D30001092E9008091E80083FD0E9436101F7018
:102D40001093E90082E084BD93E095BD9AEF97BDB2
:102D500080936E000E94B50D90E0909308018093DF
:102D600007010E94840E0E94930EA5E5B2E0E8E6FA
:102D7000F2E011921D9222E0E637F207D1F78EE0E1
:102D800090E00E94982180934B0290934C02FC01AA
:102D90000E962BEF2193E817F907E1F780E090E01A
:102DA0000E9438218C3E9E4F11F00E94F0198CE059
:102DB00090E00E942A2190E0A0E0B0E080934D02D4
:102DC00090934E02A0934F02B093500280917702ED
:102DD00080FF0EC080914D021F928F9381E495E099
:102DE0009F938F930E94CB030F900F900F900F90A3
:102DF00089EA8093800089E08093810024982C9850
:102E00003F988AB18F7C8AB96E98479A8BB180635C
:102E10008BB9769A8FE090E00E9432216093510244
:102E200070935202809353029093540267705FEF45
:102E3000659FB001112475956795759567957727FE
:102E4000709389006093880070938B0060938A0070
:102E500070938D0060938C000E942C0E80E090E0B7
:102E60000E9438218C3E9E4F11F00E94F01982E0A2
:102E700090E00E942A21809377020E94DF199093AC
:102E800064028093630283E090E00E942A21682F0D
:102E900070E080E090E00E947C1C89E091E09093DB
:102EA00066028093650286EA95E00E9432035AE842
:102EB000452E55E0552E68E1662E712C809140021A
:102EC000853009F04DC082EA95E00E94320380917E
:102ED0004002843011F110926702F0E40FB6F894CA
:102EE000A895609260000FBEF093600083B7817F69
:102EF000846083BF83B7816083BF7894889583B7EC
:102F00008E7F83BF0FB6F894A8958091600088618A
:102F100080936000109260000FBE80913F02882372
:102F200009F4CCCF0E94B50D90E0909308018093F6
:102F300007010E94840E0E94930EE8E6F2E01192CF
:102F400022E0E637F207D9F70E943B0FE8E6F2E00D
:102F500081918111C8C042E0E637F407C9F7AECFCE
:102F60000E943B0F38E7C32E32E0D32E48E6A42E52
:102F700042E0B42E00E010E00B87F50121905F01E4
:102F8000F60181916F01382E3224B1F40F5F1F4F8B
:102F90000E30110589F79FEF9E839F8318860E944C
:102FA0002B198160782F9A8789874E815F81688588
:102FB0008A850E94AE0A6AC08091770281FD04C0B2
:102FC00080E0FF24F39445C081E795E00E9432033E
:102FD00028E6822E22E0922EE12CF12CFF92EF9235
:102FE0004CE655E05F934F930E94CB0389E695E052
:102FF0000E943203F40181914F010E94641A8C8770
:1030000080E00E94641AFC852F2F30E0322F2227A7
:10301000A901482BCA019F938F9383E695E09F9364
:103020008F930E94CB0381E695E00E943203FFEF6D
:10303000EF1AFF0A0FB6F894DEBF0FBECDBF5EE0F9
:10304000E516F10459F6BCCF8F5FFF0C863009F40A
:103050009DCF932D9F21C1F389838B858A832F2058
:1030600081E009F480E08B830E942B198160782F26
:103070009D838C8349815A816B818D810E94AE0A28
:10308000F801E858FD4F8081F826F0820E94B50BC8
:1030900090917602891709F411CF0E94B50B182F71
:1030A000809376028091770282FF08CF80FF04C070
:1030B0008FE895E00E9432038091770280FF0AC07A
:1030C0001F921F935F924F920E94CB030F900F901D
:1030D0000F900F908091770280FFF0CE88E895E006
:1030E0000E943203EBCEE0E1E9BDF2E1F9BD09B4A3
:1030F00000FEFDCF8091D8008F7D8093D800809115
:10310000E00082608093E0008091E00081FDFCCFD0
:10311000D5CE089580911D020895CF93DF9320911D
:1031200040022430E1F520910601222339F020915C
:10313000630227FF03C060E222E002C068E021E0F2
:103140002093E9002FEF3091E800215035FD06C0B3
:1031500035ED3A95F1F700002111F5CF2091E80007
:1031600025FF1DC0EC0180910601811105C040E0E2
:1031700050E068E070E003C070E040E050E0CE0155
:103180000E940A108091E8008E778093E80080E228
:10319000FE01AEE1B2E001900D928A95E1F7DF9178
:1031A000CF910895CF93DF9300D01F92CDB7DEB7B4
:1031B00090914002943019F589837B836A8382E081
:1031C0008093E9008FEF9091E800815095FD06C053
:1031D00095ED9A95F1F700008111F5CF8091E80007
:1031E00085FF0DC040E050E063E070E0CE01019645
:1031F0000E940A108091E8008E778093E8000F907B
:103200000F900F90DF91CF91089578941F920F92B5
:103210000FB60F9211248F939F93AF93BF9380911A
:10322000220390912303A0912403B09125030196DA
:10323000A11DB11D8093220390932303A093240327
:10324000B0932503BF91AF919F918F910F900FBEC7
:103250000F901F9018952FB7F894809122039091AA
:103260002303A0912403B09125032FBF08951F923B
:103270000F920FB60F9211248F939F93AF93BF932A
:1032800080916702811113C08091220390912303E2
:10329000A0912403B09125034196A11DB11D8093F7
:1032A000220390932303A0932403B0932503BF919B
:1032B000AF919F918F910F900FBE0F901F90189517
:1032C00020910601222351F12091630227FF26C09D
:1032D000262F2695269526952E3178F4FC01E20FAF
:1032E000F11D677081E090E001C0880F6A95EAF7F0
:1032F000809592818923828308958091770280FF4F
:1033000017C01F926F938FEE95E09F938F930E944B
:10331000CB030F900F900F900F900895FC0106962D
:103320002281621301C012823196E817F907C1F7B2
:10333000089520910601222349F12091630227FF7D
:1033400025C0262F2695269526952E3170F4FC0152
:10335000E20FF11D677081E090E001C0880F6A956F
:10336000EAF79281892B828308958091770280FF0A
:1033700025C01F926F9381ED95E09F938F930E94DC
:10338000CB030F900F900F900F900895FC01329691
:103390002FEF30E04191641789F02F3F19F441116C
:1033A00001C0232F3F5F3630A9F72F3F39F0FC01D2
:1033B000E20FF11D27FDFA95628308950895CF93DA
:1033C00084E090E00E942A21C82F81E290E00E94D0
:1033D0002A212C2F30E0A901582BCA01CF91089542
:1033E0006CEE7EEF80E090E00E945C2160E082E085
:1033F00090E00E943E2160E083E090E00E943E2148
:1034000010921E0310921F031092200310922103AA
:1034100060E084E090E00E943E2160E081E290E084
:103420000E943E2160E085E090E00E943E2160E045
:1034300086E090E00E943E216FEF87E090E00E94DE
:103440003E2140E050E0BA0188E090E00E94502127
:1034500060E08DE090E00E943E2140E050E0BA0143
:1034600088E190E00E94502160E087E190E00E94B6
:103470003E2140E050E0BA018CE190E00E945021F2
:1034800060E080E290E00E943E2110925102109292
:103490005202109253021092540284E08061809391
:1034A0005102409151025091520260915302709129
:1034B00054028FE090E00E94502140E050E0BA01B9
:1034C00083E190E00C9450218295982F937344E00F
:1034D000949F900111248C7C86958695282B822FB1
:1034E0008575880F2A7A2695822B089580911D0371
:1034F000811110921D030895EF92FF920F931F9375
:10350000CF9390911C0380911B03892B20911A0368
:10351000982F922B9093860280911D038823D9F0D7
:10352000892B8093860280910601882331F0809157
:10353000630287FF02C08EE101C086E0E8E8F2E0A6
:1035400090E0815028F021912223D9F39F5FF9CF99
:1035500091110E94761AE0916502F091660230970F
:1035600009F448C080910601882359F080916302D4
:1035700087FF07C0809186028093870285E0809351
:1035800086020280F381E02D86E892E00995809121
:10359000770282FF2FC080FF04C08FEB95E00E946E
:1035A000320306E812E0C8E089EBE82E85E0F82E49
:1035B0008091770280FF0CC0F80180811F928F9369
:1035C000FF92EF920E94CB030F900F900F900F90FD
:1035D000C1500F5F1F4FC111EBCF8091770280FF69
:1035E00009C087EB95E0CF911F910F91FF90EF906D
:1035F0000C943203CF911F910F91FF90EF9008959B
:10360000BF92CF92DF92EF92FF920F931F93CF93CF
:10361000DF938C01C0901503D0901603E090170340
:10362000F090180380911E0390911F03A091200336
:10363000B0912103C82AD92AEA2AFB2ACFE1D0E097
:10364000D701C6010C2E04C0B695A795979587950E
:103650000A94D2F780FD04C0219790F7B12C07C0DF
:10366000BC2EB8018C2F0E94DB0B0197A9F38B2D88
:10367000DF91CF911F910F91FF90EF90DF90CF904E
:10368000BF900895CF93DF93EC010E94001BBE0111
:103690000E94DB0BDF91CF910895292F220F920F0B
:1036A000990F890F682F669566956695982F977084
:1036B00085E0689FB001112440E050E080E0FB010C
:1036C000E40FF51FE252FD4F208130E0092E02C0C9
:1036D000369527950A94E2F721703327042E01C00E
:1036E000220F0A94EAF7822B4F5F5F4F4530510556
:1036F00031F70895292F220F920F990F890FE82F84
:10370000E695E695E695877051E001C0550F8A95DC
:10371000EAF785E0E89FF0011124E252FD4F20E036
:1037200030E070E04081CB01022E02C09695879573
:103730000A94E2F7817081958427852384278193F9
:103740002F5F3F4F2530310569F708950F931F9381
:10375000AB01BC01CB01AA27BB270097A105B1058E
:1037600011F0E0E103C0DB01CA01E0E0092F1A2FEC
:103770002B2F3327011511052105310519F0E85FBD
:10378000D901C8018C019D01F4E036952795179564
:103790000795FA95D1F7011511052105310519F0A5
:1037A000EC5FD901C8018C019D01F2E036952795A7
:1037B00017950795FA95D1F70115110521053105E2
:1037C00019F0EE5FD901C801B695A7959795879531
:1037D000892B8A2B8B2B09F0EF5F56985E982598E2
:1037E0002D9826982E9827982F988E2F90E0FC01E0
:1037F0003197E730F105A8F4ED58FF4F0C94922172
:10380000259A2D9A0EC0259A2D9A269A2E9A09C08D
:10381000259A2D9A04C0259A2D9A269A2E9A279A8F
:103820002F9A4093150350931603609317037093D8
:1038300018031F910F910C94FD1E0F931F9341E0ED
:1038400050E060E070E004C0440F551F661F771F12
:103850008A95D2F7409550956095709580911503A3
:1038600090911603A0911703B09118038A019B0150
:10387000082319232A233B23C901B8011F910F9163
:103880000C94A61B20911903809582238093190321
:10389000982F977079F430E0482F082E000C550BC4
:1038A0002417350739F08595859585950E941D1C4F
:1038B0001092190308950F931F9341E050E060E0C8
:1038C00070E004C0440F551F661F771F8A95D2F71A
:1038D0008091150390911603A0911703B0911803DE
:1038E0008A019B01082B192B2A2B3B2BC901B801FC
:1038F0001F910F910C94A61B60931E0370931F03DE
:1039000080932003909321030C94FD1E8091DD028F
:103910009091AC02891719F08F5F8770FBCF0895E3
:10392000CF938091AB0282958F7009F05FC0809138
:10393000A802882309F45AC08091DD02B091AC023C
:103940007091A602A091A7024091A9025091AA02EB
:1039500091E07F3F09F090E0692FC6E08B1709F4F2
:1039600045C04115510521F0AF3F21F020E003C0D3
:1039700021E001C0262F90E020FD35C0C89FF00156
:10398000C99FF00D1124E355FD4F21812A132BC04F
:103990002081271328C02281211125C02381348151
:1039A0002417350710F421503109241B350B283C0E
:1039B0003105C8F42091AB022F7020612093AB0237
:1039C00026E0289FF001299FF00D1124EE54FD4FB1
:1039D00080818F708061808386EA92E00E94D403A8
:1039E000CF910C94861C01968770B8CFCF91089523
:1039F0000E94421B292F2F70E92FE295EF704E2F66
:103A000050E0FA013297EE30F105B8F4E658FF4F76
:103A10000C949221803F99F018F4883E70F40FC006
:103A2000843F59F40CC0883E50F0813F31F407C008
:103A3000822F869586958695089580E0089581E089
:103A40000895AF92BF92CF92DF92EF92FF920F93C1
:103A50001F93CF93DF93CDB7DEB761970FB6F8947E
:103A6000DEBF0FBECDBF8C0185E0F801DE011D96E3
:103A700001900D928A95E1F7D8013C9111962C9115
:103A800011971296EC905091A6026091A702809136
:103A9000A9029091AA02009731F06F3F31F441E002
:103AA0005F3F19F403C041E001C040E0B42FB170A2
:103AB000BB2E40FD43C1F801C380D480A090A80272
:103AC000AA2009F4E2C04091AB02C816D90628F03A
:103AD000D601A81BB90BCD0104C0809590958C0D23
:103AE0009D1DFF24F394883C910548F0F12C407F04
:103AF00009F090C086EA92E00E94D40317C1842F97
:103B0000807F09F052C0621312C0531310C0FE2C04
:103B1000E1100DC04F7040614093AB0286EA92E025
:103B20000E94D4038091AB02F801858354C1CD2853
:103B300031F02F3F31F481E03F3F19F403C081E0C1
:103B400001C080E080FD03C081E08E2502C080E0DE
:103B500090E0F82FF170FF2E80FF1CC08091DD02F5
:103B60004091AC0256E0841709F412C190E0589FCE
:103B7000F001599FF00D1124E355FD4F618126138B
:103B800006C06081361303C06281E61203C001964D
:103B90008770E9CFFE2CEE2009F41DC18091AB02A5
:103BA00081608093AB02F12C16C1621308C05313DD
:103BB00006C0E11004C08091AB02F80199C03D87B6
:103BC0002E878D859E850E94F81C882369F1EE2042
:103BD00059F12091AB02822F82958F7090E002976D
:103BE00074F08091A6029091A70298878F8319861E
:103BF000DB86CA862C87CE0107960E94D40386E016
:103C0000F801A6EAB2E001900D928A95E1F70E94D0
:103C1000901C0DC0621771F03D872E878D859E85A3
:103C20000E94F81C81111AC0C8010E94D403FF240D
:103C3000F394D1C05313F0CFE110EECF8091AB02DB
:103C4000F8018583C8010E94D40386E0E6EAF2E029
:103C5000DF011D928A95E9F7FA2CBDC0EE2021F311
:103C60002091AB02822F82958F7090E002973CF2F8
:103C70008091A6029091A7029A8389831B82DD829C
:103C8000CC822E83CE010196B8CFC816D90638F063
:103C9000C81AD90AB8ECCB16D10450F007C08095E9
:103CA00090958C0D9D1D883C910510F0F12C3EC027
:103CB000FE2CEE2009F4B8CF621327C0531325C0A1
:103CC0002091AB0220FD18C0822F82958F70482F63
:103CD00050E04115510581F0F80125834F30510521
:103CE00041F08F5F982F9295907F822F8F70892B54
:103CF0008583C8010E94D40386E0F801A6EAB2E0F9
:103D000001900D928A95E1F766C03D872E878D85DB
:103D10009E850E94F81C811172CF8091AB02816058
:103D20008093AB02C8010E94D40355C0E6EAF2E0DA
:103D300086E0DF011D928A95E9F74DC0EE2009F477
:103D400073CF3D872E878D859E850E94F81CF82EA7
:103D5000882309F469CF86E0F801A6EAB2E0019071
:103D60000D928A95E1F78091A6029091A7020E9498
:103D7000421B92959F70963041F48091270391E009
:103D8000892780932703909326030E94901C23C0C9
:103D90003D872E878D859E850E94421B292F229567
:103DA0002F70223028F49F7039F0811105C00BC0AC
:103DB000243028F49F7049F4805E883020F0C801D8
:103DC0000E94D403BF2CFB2C06C0D80115969C91F1
:103DD000907F91F7F8CF8F2D61960FB6F894DEBFE4
:103DE0000FBECDBFDF91CF911F910F91FF90EF904C
:103DF000DF90CF90BF90AF90089510921B03109268
:103E00001A030E947C1A80E090E00E949F0B80E0E1
:103E100090E00C94890B10921C038091060188237A
:103E200031F08091630287FF02C08EE101C086E01D
:103E3000E8E8F2E0DF011D928A95E9F70C94FD1E97
:103E4000882341F0809590911B03892380931B0365
:103E50000C947C1A0895882339F090911B03892BC8
:103E600080931B030C947C1A0895882341F080955D
:103E700090911C03892380931C030C947C1A089551
:103E8000882339F090911C03892B80931C030C9498
:103E90007C1A0895882309F458C0682F823869F481
:103EA0000E94B50B81FF51C069E386E892E00E9451
:103EB00099190E947C1A69E30EC0833891F40E941C
:103EC000B50B80FF42C063E586E892E00E94991935
:103ED0000E947C1A63E586E892E00E9460190C94C7
:103EE0007C1A843869F40E94B50B82FF2EC067E407
:103EF00086E892E00E9499190E947C1A67E4EBCF51
:103F00008CEF860F813A38F380E2860F883070F4A8
:103F1000677081E090E001C0880F6A95EAF78095AC
:103F200090911C03892380931C03D9CF8BE5860FC6
:103F3000833020F480E090E00C949F0B685A673146
:103F400020F480E090E00C94890B0895CF93C82F63
:103F50000E94B91FC93349F42FEF87EE93E0215037
:103F600080409040E1F700C000008C2FCF910C946E
:103F70004A1FCF93882309F4B5C0C82F8238B1F403
:103F80000E94B50B81FDAEC069E386E892E00E9415
:103F900099190E947C1A2FEF81EE94E02150804005
:103FA0009040E1F700C0000069E317C08338E1F4F6
:103FB0000E94B50B80FD96C063E586E892E00E9402
:103FC00099190E947C1A2FEF81EE94E021508040D5
:103FD0009040E1F700C0000063E586E892E00E94AF
:103FE0006019CF910C947C1A8438B1F40E94B50BFF
:103FF00082FD78C067E486E892E00E9499190E94E9
:104000007C1A2FEF81EE94E0215080409040E1F740
:1040100000C0000067E4E1CF8CEF8C0F813AB8F567
:10402000809106018823E1F08091630287FF18C028
:10403000EC2FE695E695E695F0E0EA57FD4F828194
:10404000282F30E04C2F477081E090E002C0880FAD
:10405000991F4A95E2F782239323892B59F411C0C3
:10406000E8E8F2E08191C81729F022E0EE38F20783
:10407000C9F707C06C2F86E892E00E9460190E9481
:104080007C1A6C2F86E892E00E949919AACF80E2F0
:104090008C0F883068F4C77081E090E001C0880F11
:1040A000CA95EAF790911C03892B80931C0399CF42
:1040B000EBE5EC0FE33040F4F0E0E653FE4F808197
:1040C00090E0CF910C949F0BC85AC73158F4EC2F55
:1040D000F0E0EE0FFF1FE353FE4F80819181CF91FF
:1040E0000C94890BCF9108951092B9008CE08093C5
:1040F000B8000895EF92FF920F931F93CF93DF9331
:10410000182FEB011092BC0084EA8093BC000E943F
:104110002B197C018091BC0087FD0EC0CF3F8FEF33
:10412000D807C1F30E942B198E199F098C179D0780
:1041300088F38EEF9FEF2EC08091B900887F883082
:1041400041F08091B900887F803119F08FEF9FEFA7
:1041500021C01093BB0084E88093BC000E942B19FF
:104160008C018091BC0087FD0CC0CF3F8FEFD8073A
:10417000C1F30E942B19801B910B8C179D0788F3AC
:10418000D8CF8091B900887F883111F08034F1F662
:1041900080E090E0DF91CF911F910F91FF90EF9021
:1041A00008950F931F93CF93DF93EB018093BB0090
:1041B00084E88093BC000E942B198C018091BC0084
:1041C00087FD0EC0CF3F8FEFD807C1F30E942B1998
:1041D000801B910B8C179D0788F38EEF9FEF0CC00F
:1041E0002091B900287F81E090E0283211F480E02E
:1041F00090E0919581959109DF91CF911F910F9159
:1042000008950F931F93CF93DF93EC0184E880937D
:10421000BC000E942B198C018091BC0087FD0EC050
:10422000CF3F8FEFD807C1F30E942B19801B910B52
:104230008C179D0788F38EEF9FEF03C08091BB0022
:1042400090E0DF91CF911F910F91089584E98093C1
:10425000BC000895F999FECF92BD81BDF89A9927C7
:1042600080B50895A6E1B0E044E050E00C946421EC
:10427000A8E1B0E042E050E00C946421262FF999C7
:10428000FECF92BD81BDF89A019700B4021639F0B5
:104290001FBA20BD0FB6F894FA9AF99A0FBE089586
:1042A0000396272F0E943F210E943E21252F0E9426
:1042B0003F21242F0C943F210196272F0E943F215C
:1042C0000C943E21DC01CB01FC01F999FECF06C024
:1042D000F2BDE1BDF89A319600B40D9241505040C4
:1042E000B8F70895991B79E004C0991F961708F054
:1042F000961B881F7A95C9F780950895AA1BBB1B4A
:1043000051E107C0AA1FBB1FA617B70710F0A61BD5
:10431000B70B881F991F5A95A9F780959095BC01F6
:10432000CD010895EE0FFF1F0590F491E02D099443
:104330000F931F93CF93DF938230910510F482E0A7
:1043400090E0E0912A03F0912B0320E030E0A0E020
:10435000B0E0309719F140815181028113814817F3
:104360005907C8F08417950769F4109731F0129631
:104370000C93129713961C9327C000932A03109353
:104380002B0322C02115310519F04217530718F4E9
:104390009A01BD01EF01DF01F801DBCF21153105E5
:1043A000F9F0281B390B2430310580F48A819B8178
:1043B0006115710521F0FB019383828304C0909302
:1043C0002B0380932A03FE01329644C0FE01E20FC4
:1043D000F31F8193919322503109398328833AC086
:1043E0002091280330912903232B41F420910201CD
:1043F0003091030130932903209328032091000179
:10440000309101012115310541F42DB73EB740919E
:10441000040150910501241B350BE0912803F09114
:104420002903E217F307A0F42E1B3F0B28173907C7
:1044300078F0AC014E5F5F4F2417350748F04E0F00
:104440005F1F50932903409328038193919302C0E7
:10445000E0E0F0E0CF01DF91CF911F910F9108953F
:10446000CF93DF93009709F481C0FC013297138248
:104470001282A0912A03B0912B03109781F420811E
:104480003181820F931F209128033091290328172F
:10449000390751F5F0932903E093280367C0ED0134
:1044A00020E030E0CE17DF0740F44A815B819E01B7
:1044B00041155105F1F0EA01F5CFD383C283408164
:1044C0005181840F951FC817D90759F488819981A4
:1044D000840F951F0296918380838A819B819383A9
:1044E00082832115310529F4F0932B03E0932A03ED
:1044F0003DC0E901FB83EA8349915991C40FD51F5F
:10450000EC17FD0761F480819181840F951F02965D
:10451000E90199838883828193819B838A83E0E088
:10452000F0E012968D919C911397009719F0FD0180
:10453000DC01F7CF8D919C9111979D012E5F3F4F2C
:10454000820F931F209128033091290328173907E0
:1045500069F4309729F410922B0310922A0302C0B9
:1045600013821282B0932903A0932803DF91CF9185
:064570000895F894FFCF4E
:1045760000002C0320000120008A188D1889186A73
:10458600156115000D010D020D030D040D050D003D
:104596000C010C020C030C040C050C000B010B02A5
:1045A6000B030B040B050B000A010A020A030A049B
:1045B6000A050A0009010902090309040905090097
:1045C6000801080208030804080508000701070295
:1045D600070307040705070006010602060306048B
:1045E6000605060005010502050305040505050087
:1045F6000401040204030404040504000301030285
:10460600030303040305030002010202020302047A
:104616000205020001010102010301040105010076
:104626000001000200030004000500406D2246045C
:10463600D903B703AC04C504DE04818283E200E932
:1046460000EA00B500B600B700CD008301CC008AB1
:104656000192019401210223022402250226022747
:0C466600022A02B300B4006F00700000D4
:00000001FF
